{
  "contractName": "certificate",
  "abi": [
    {
      "inputs": [],
      "stateMutability": "nonpayable",
      "type": "constructor"
    },
    {
      "inputs": [
        {
          "internalType": "address",
          "name": "",
          "type": "address"
        }
      ],
      "name": "addressToInfo",
      "outputs": [
        {
          "internalType": "address",
          "name": "addr",
          "type": "address"
        },
        {
          "internalType": "string",
          "name": "name",
          "type": "string"
        },
        {
          "internalType": "string",
          "name": "birth",
          "type": "string"
        },
        {
          "internalType": "uint256",
          "name": "notBefore",
          "type": "uint256"
        },
        {
          "internalType": "uint256",
          "name": "notAfter",
          "type": "uint256"
        },
        {
          "internalType": "bytes32",
          "name": "id",
          "type": "bytes32"
        }
      ],
      "stateMutability": "view",
      "type": "function",
      "constant": true
    },
    {
      "inputs": [
        {
          "internalType": "address",
          "name": "",
          "type": "address"
        }
      ],
      "name": "certificates",
      "outputs": [
        {
          "internalType": "bytes32",
          "name": "certhash",
          "type": "bytes32"
        },
        {
          "internalType": "address",
          "name": "caPubkey",
          "type": "address"
        },
        {
          "internalType": "address",
          "name": "userPubkey",
          "type": "address"
        }
      ],
      "stateMutability": "view",
      "type": "function",
      "constant": true
    },
    {
      "inputs": [
        {
          "internalType": "uint256",
          "name": "",
          "type": "uint256"
        }
      ],
      "name": "del",
      "outputs": [
        {
          "internalType": "bytes32",
          "name": "certhash",
          "type": "bytes32"
        }
      ],
      "stateMutability": "view",
      "type": "function",
      "constant": true
    },
    {
      "inputs": [],
      "name": "hasinfo",
      "outputs": [
        {
          "internalType": "bool",
          "name": "",
          "type": "bool"
        }
      ],
      "stateMutability": "nonpayable",
      "type": "function"
    },
    {
      "inputs": [],
      "name": "setId",
      "outputs": [
        {
          "internalType": "bytes32",
          "name": "",
          "type": "bytes32"
        }
      ],
      "stateMutability": "view",
      "type": "function",
      "constant": true
    },
    {
      "inputs": [],
      "name": "getCertificate",
      "outputs": [
        {
          "internalType": "address",
          "name": "",
          "type": "address"
        },
        {
          "internalType": "string",
          "name": "",
          "type": "string"
        },
        {
          "internalType": "string",
          "name": "",
          "type": "string"
        },
        {
          "internalType": "uint256",
          "name": "",
          "type": "uint256"
        },
        {
          "internalType": "uint256",
          "name": "",
          "type": "uint256"
        },
        {
          "internalType": "bytes32",
          "name": "",
          "type": "bytes32"
        }
      ],
      "stateMutability": "view",
      "type": "function",
      "constant": true
    },
    {
      "inputs": [],
      "name": "getCertInfo",
      "outputs": [
        {
          "internalType": "bytes32",
          "name": "",
          "type": "bytes32"
        },
        {
          "internalType": "address",
          "name": "",
          "type": "address"
        },
        {
          "internalType": "address",
          "name": "",
          "type": "address"
        }
      ],
      "stateMutability": "view",
      "type": "function",
      "constant": true
    },
    {
      "inputs": [
        {
          "internalType": "string",
          "name": "name",
          "type": "string"
        },
        {
          "internalType": "string",
          "name": "birth",
          "type": "string"
        }
      ],
      "name": "issue",
      "outputs": [],
      "stateMutability": "nonpayable",
      "type": "function"
    },
    {
      "inputs": [
        {
          "internalType": "string",
          "name": "name",
          "type": "string"
        },
        {
          "internalType": "string",
          "name": "birth",
          "type": "string"
        },
        {
          "internalType": "uint256",
          "name": "nbefore",
          "type": "uint256"
        },
        {
          "internalType": "uint256",
          "name": "nafter",
          "type": "uint256"
        },
        {
          "internalType": "bytes32",
          "name": "id",
          "type": "bytes32"
        }
      ],
      "name": "verification2",
      "outputs": [
        {
          "internalType": "bool",
          "name": "",
          "type": "bool"
        }
      ],
      "stateMutability": "nonpayable",
      "type": "function"
    },
    {
      "inputs": [],
      "name": "deleteCert",
      "outputs": [],
      "stateMutability": "nonpayable",
      "type": "function"
    }
  ],
  "bytecode": "0x608060405234801561001057600080fd5b5033600160006101000a81548173ffffffffffffffffffffffffffffffffffffffff021916908373ffffffffffffffffffffffffffffffffffffffff16021790555061255f806100616000396000f3fe608060405234801561001057600080fd5b506004361061009d5760003560e01c806357771a231161006657806357771a23146101385780637f50670a14610168578063ae15eb8e1461019d578063d05c11e6146101c0578063f5e93d69146101de5761009d565b806216e526146100a2578063040c2b0f146100d4578063087e926c146100de5780631532f93a146100fc578063289fd6541461011c575b600080fd5b6100bc60048036038101906100b79190611de1565b61020e565b6040516100cb93929190611e36565b60405180910390f35b6100dc610278565b005b6100e661043b565b6040516100f39190611e6d565b60405180910390f35b61010461046b565b60405161011393929190611e36565b60405180910390f35b61013660048036038101906101319190611fce565b6105ea565b005b610152600480360381019061014d919061207c565b61061d565b60405161015f9190611e6d565b60405180910390f35b610182600480360381019061017d9190611de1565b610647565b60405161019496959493929190612140565b60405180910390f35b6101a56107b3565b6040516101b796959493929190612140565b60405180910390f35b6101c8610b65565b6040516101d591906121ca565b60405180910390f35b6101f860048036038101906101f39190612211565b610be7565b60405161020591906121ca565b60405180910390f35b60056020528060005260406000206000915090508060000154908060010160009054906101000a900473ffffffffffffffffffffffffffffffffffffffff16908060020160009054906101000a900473ffffffffffffffffffffffffffffffffffffffff16905083565b600660405180602001604052806000548152509080600181540180825580915050600190039060005260206000200160009091909190915060008201518160000155505060046000600160009054906101000a900473ffffffffffffffffffffffffffffffffffffffff1673ffffffffffffffffffffffffffffffffffffffff1673ffffffffffffffffffffffffffffffffffffffff168152602001908152602001600020600080820160006101000a81549073ffffffffffffffffffffffffffffffffffffffff02191690556001820160006103559190611c8c565b6002820160006103659190611c8c565b600382016000905560048201600090556005820160009055505060056000600160009054906101000a900473ffffffffffffffffffffffffffffffffffffffff1673ffffffffffffffffffffffffffffffffffffffff1673ffffffffffffffffffffffffffffffffffffffff1681526020019081526020016000206000808201600090556001820160006101000a81549073ffffffffffffffffffffffffffffffffffffffff02191690556002820160006101000a81549073ffffffffffffffffffffffffffffffffffffffff02191690555050565b6000423360405160200161045092919061232d565b60405160208183030381529060405280519060200120905090565b600080600060056000600160009054906101000a900473ffffffffffffffffffffffffffffffffffffffff1673ffffffffffffffffffffffffffffffffffffffff1673ffffffffffffffffffffffffffffffffffffffff1681526020019081526020016000206000015460056000600160009054906101000a900473ffffffffffffffffffffffffffffffffffffffff1673ffffffffffffffffffffffffffffffffffffffff1673ffffffffffffffffffffffffffffffffffffffff16815260200190815260200160002060010160009054906101000a900473ffffffffffffffffffffffffffffffffffffffff1660056000600160009054906101000a900473ffffffffffffffffffffffffffffffffffffffff1673ffffffffffffffffffffffffffffffffffffffff1673ffffffffffffffffffffffffffffffffffffffff16815260200190815260200160002060020160009054906101000a900473ffffffffffffffffffffffffffffffffffffffff16925092509250909192565b600015156105f6610b65565b15151415610619576106066110fd565b610610828261111e565b610618611616565b5b5050565b6006818154811061062d57600080fd5b906000526020600020016000915090508060000154905081565b60046020528060005260406000206000915090508060000160009054906101000a900473ffffffffffffffffffffffffffffffffffffffff169080600101805461069090612388565b80601f01602080910402602001604051908101604052809291908181526020018280546106bc90612388565b80156107095780601f106106de57610100808354040283529160200191610709565b820191906000526020600020905b8154815290600101906020018083116106ec57829003601f168201915b50505050509080600201805461071e90612388565b80601f016020809104026020016040519081016040528092919081815260200182805461074a90612388565b80156107975780601f1061076c57610100808354040283529160200191610797565b820191906000526020600020905b81548152906001019060200180831161077a57829003601f168201915b5050505050908060030154908060040154908060050154905086565b6000606080600080600060046000600160009054906101000a900473ffffffffffffffffffffffffffffffffffffffff1673ffffffffffffffffffffffffffffffffffffffff1673ffffffffffffffffffffffffffffffffffffffff16815260200190815260200160002060000160009054906101000a900473ffffffffffffffffffffffffffffffffffffffff1660046000600160009054906101000a900473ffffffffffffffffffffffffffffffffffffffff1673ffffffffffffffffffffffffffffffffffffffff1673ffffffffffffffffffffffffffffffffffffffff16815260200190815260200160002060010160046000600160009054906101000a900473ffffffffffffffffffffffffffffffffffffffff1673ffffffffffffffffffffffffffffffffffffffff1673ffffffffffffffffffffffffffffffffffffffff16815260200190815260200160002060020160046000600160009054906101000a900473ffffffffffffffffffffffffffffffffffffffff1673ffffffffffffffffffffffffffffffffffffffff1673ffffffffffffffffffffffffffffffffffffffff1681526020019081526020016000206003015460046000600160009054906101000a900473ffffffffffffffffffffffffffffffffffffffff1673ffffffffffffffffffffffffffffffffffffffff1673ffffffffffffffffffffffffffffffffffffffff1681526020019081526020016000206004015460046000600160009054906101000a900473ffffffffffffffffffffffffffffffffffffffff1673ffffffffffffffffffffffffffffffffffffffff1673ffffffffffffffffffffffffffffffffffffffff16815260200190815260200160002060050154848054610a4590612388565b80601f0160208091040260200160405190810160405280929190818152602001828054610a7190612388565b8015610abe5780601f10610a9357610100808354040283529160200191610abe565b820191906000526020600020905b815481529060010190602001808311610aa157829003601f168201915b50505050509450838054610ad190612388565b80601f0160208091040260200160405190810160405280929190818152602001828054610afd90612388565b8015610b4a5780601f10610b1f57610100808354040283529160200191610b4a565b820191906000526020600020905b815481529060010190602001808311610b2d57829003601f168201915b50505050509350955095509550955095509550909192939495565b60008060001b60046000600160009054906101000a900473ffffffffffffffffffffffffffffffffffffffff1673ffffffffffffffffffffffffffffffffffffffff1673ffffffffffffffffffffffffffffffffffffffff168152602001908152602001600020600501541415610bdf5760009050610be4565b600190505b90565b600080855187516074610bfa91906123e9565b610c0491906123e9565b905060008167ffffffffffffffff811115610c2257610c21611ea3565b5b6040519080825280601f01601f191660200182016040528015610c545781602001600182028036833780820191505090505b509050600080600160009054906101000a900473ffffffffffffffffffffffffffffffffffffffff16604051602001610c8d919061243f565b6040516020818303038152906040529050600088604051602001610cb1919061245a565b6040516020818303038152906040529050600088604051602001610cd5919061245a565b6040516020818303038152906040529050600088604051602001610cf99190612496565b604051602081830303815290604052905060005b6014811015610d9757848181518110610d2957610d286124b1565b5b602001015160f81c60f81b878781518110610d4757610d466124b1565b5b60200101907effffffffffffffffffffffffffffffffffffffffffffffffffffffffffffff1916908160001a9053508580610d81906124e0565b9650508080610d8f906124e0565b915050610d0d565b5060005b8d51811015610e25578d8181518110610db757610db66124b1565b5b602001015160f81c60f81b878781518110610dd557610dd46124b1565b5b60200101907effffffffffffffffffffffffffffffffffffffffffffffffffffffffffffff1916908160001a9053508580610e0f906124e0565b9650508080610e1d906124e0565b915050610d9b565b5060005b8c51811015610eb3578c8181518110610e4557610e446124b1565b5b602001015160f81c60f81b878781518110610e6357610e626124b1565b5b60200101907effffffffffffffffffffffffffffffffffffffffffffffffffffffffffffff1916908160001a9053508580610e9d906124e0565b9650508080610eab906124e0565b915050610e29565b5060005b6020811015610f4157838181518110610ed357610ed26124b1565b5b602001015160f81c60f81b878781518110610ef157610ef06124b1565b5b60200101907effffffffffffffffffffffffffffffffffffffffffffffffffffffffffffff1916908160001a9053508580610f2b906124e0565b9650508080610f39906124e0565b915050610eb7565b5060005b6020811015610fcf57828181518110610f6157610f606124b1565b5b602001015160f81c60f81b878781518110610f7f57610f7e6124b1565b5b60200101907effffffffffffffffffffffffffffffffffffffffffffffffffffffffffffff1916908160001a9053508580610fb9906124e0565b9650508080610fc7906124e0565b915050610f45565b5060005b602081101561105d57818181518110610fef57610fee6124b1565b5b602001015160f81c60f81b87878151811061100d5761100c6124b1565b5b60200101907effffffffffffffffffffffffffffffffffffffffffffffffffffffffffffff1916908160001a9053508580611047906124e0565b9650508080611055906124e0565b915050610fd3565b5060008680519060200120905060056000600160009054906101000a900473ffffffffffffffffffffffffffffffffffffffff1673ffffffffffffffffffffffffffffffffffffffff1673ffffffffffffffffffffffffffffffffffffffff168152602001908152602001600020600001548114156110e7576001985050505050505050506110f4565b6000985050505050505050505b95945050505050565b426002819055506301e1338060025461111691906123e9565b600381905550565b3360046000600160009054906101000a900473ffffffffffffffffffffffffffffffffffffffff1673ffffffffffffffffffffffffffffffffffffffff1673ffffffffffffffffffffffffffffffffffffffff16815260200190815260200160002060000160006101000a81548173ffffffffffffffffffffffffffffffffffffffff021916908373ffffffffffffffffffffffffffffffffffffffff1602179055508160046000600160009054906101000a900473ffffffffffffffffffffffffffffffffffffffff1673ffffffffffffffffffffffffffffffffffffffff1673ffffffffffffffffffffffffffffffffffffffff1681526020019081526020016000206001019080519060200190611239929190611ccc565b508060046000600160009054906101000a900473ffffffffffffffffffffffffffffffffffffffff1673ffffffffffffffffffffffffffffffffffffffff1673ffffffffffffffffffffffffffffffffffffffff16815260200190815260200160002060020190805190602001906112b2929190611ccc565b5060025460046000600160009054906101000a900473ffffffffffffffffffffffffffffffffffffffff1673ffffffffffffffffffffffffffffffffffffffff1673ffffffffffffffffffffffffffffffffffffffff1681526020019081526020016000206003018190555060035460046000600160009054906101000a900473ffffffffffffffffffffffffffffffffffffffff1673ffffffffffffffffffffffffffffffffffffffff1673ffffffffffffffffffffffffffffffffffffffff1681526020019081526020016000206004018190555061139161043b565b60046000600160009054906101000a900473ffffffffffffffffffffffffffffffffffffffff1673ffffffffffffffffffffffffffffffffffffffff1673ffffffffffffffffffffffffffffffffffffffff1681526020019081526020016000206005018190555061160560046000600160009054906101000a900473ffffffffffffffffffffffffffffffffffffffff1673ffffffffffffffffffffffffffffffffffffffff1673ffffffffffffffffffffffffffffffffffffffff1681526020019081526020016000206040518060c00160405290816000820160009054906101000a900473ffffffffffffffffffffffffffffffffffffffff1673ffffffffffffffffffffffffffffffffffffffff1673ffffffffffffffffffffffffffffffffffffffff1681526020016001820180546114ce90612388565b80601f01602080910402602001604051908101604052809291908181526020018280546114fa90612388565b80156115475780601f1061151c57610100808354040283529160200191611547565b820191906000526020600020905b81548152906001019060200180831161152a57829003601f168201915b5050505050815260200160028201805461156090612388565b80601f016020809104026020016040519081016040528092919081815260200182805461158c90612388565b80156115d95780601f106115ae576101008083540402835291602001916115d9565b820191906000526020600020905b8154815290600101906020018083116115bc57829003601f168201915b5050505050815260200160038201548152602001600482015481526020016005820154815250506117ff565b805190602001206000819055505050565b7319dec5de28cd9433d73a5fea9c9d99e137064b5760056000600160009054906101000a900473ffffffffffffffffffffffffffffffffffffffff1673ffffffffffffffffffffffffffffffffffffffff1673ffffffffffffffffffffffffffffffffffffffff16815260200190815260200160002060010160006101000a81548173ffffffffffffffffffffffffffffffffffffffff021916908373ffffffffffffffffffffffffffffffffffffffff160217905550600160009054906101000a900473ffffffffffffffffffffffffffffffffffffffff1660056000600160009054906101000a900473ffffffffffffffffffffffffffffffffffffffff1673ffffffffffffffffffffffffffffffffffffffff1673ffffffffffffffffffffffffffffffffffffffff16815260200190815260200160002060020160006101000a81548173ffffffffffffffffffffffffffffffffffffffff021916908373ffffffffffffffffffffffffffffffffffffffff16021790555060005460056000600160009054906101000a900473ffffffffffffffffffffffffffffffffffffffff1673ffffffffffffffffffffffffffffffffffffffff1673ffffffffffffffffffffffffffffffffffffffff16815260200190815260200160002060000181905550565b60606000826040015151836020015151607461181b91906123e9565b61182591906123e9565b905060008167ffffffffffffffff81111561184357611842611ea3565b5b6040519080825280601f01601f1916602001820160405280156118755781602001600182028036833780820191505090505b5090506000808560000151604051602001611890919061243f565b6040516020818303038152906040529050600086606001516040516020016118b8919061245a565b6040516020818303038152906040529050600087608001516040516020016118e0919061245a565b604051602081830303815290604052905060008860a001516040516020016119089190612496565b604051602081830303815290604052905060005b60148110156119a657848181518110611938576119376124b1565b5b602001015160f81c60f81b878781518110611956576119556124b1565b5b60200101907effffffffffffffffffffffffffffffffffffffffffffffffffffffffffffff1916908160001a9053508580611990906124e0565b965050808061199e906124e0565b91505061191c565b5060005b896020015151811015611a3c57896020015181815181106119ce576119cd6124b1565b5b602001015160f81c60f81b8787815181106119ec576119eb6124b1565b5b60200101907effffffffffffffffffffffffffffffffffffffffffffffffffffffffffffff1916908160001a9053508580611a26906124e0565b9650508080611a34906124e0565b9150506119aa565b5060005b896040015151811015611ad25789604001518181518110611a6457611a636124b1565b5b602001015160f81c60f81b878781518110611a8257611a816124b1565b5b60200101907effffffffffffffffffffffffffffffffffffffffffffffffffffffffffffff1916908160001a9053508580611abc906124e0565b9650508080611aca906124e0565b915050611a40565b5060005b6020811015611b6057838181518110611af257611af16124b1565b5b602001015160f81c60f81b878781518110611b1057611b0f6124b1565b5b60200101907effffffffffffffffffffffffffffffffffffffffffffffffffffffffffffff1916908160001a9053508580611b4a906124e0565b9650508080611b58906124e0565b915050611ad6565b5060005b6020811015611bee57828181518110611b8057611b7f6124b1565b5b602001015160f81c60f81b878781518110611b9e57611b9d6124b1565b5b60200101907effffffffffffffffffffffffffffffffffffffffffffffffffffffffffffff1916908160001a9053508580611bd8906124e0565b9650508080611be6906124e0565b915050611b64565b5060005b6020811015611c7c57818181518110611c0e57611c0d6124b1565b5b602001015160f81c60f81b878781518110611c2c57611c2b6124b1565b5b60200101907effffffffffffffffffffffffffffffffffffffffffffffffffffffffffffff1916908160001a9053508580611c66906124e0565b9650508080611c74906124e0565b915050611bf2565b5085975050505050505050919050565b508054611c9890612388565b6000825580601f10611caa5750611cc9565b601f016020900490600052602060002090810190611cc89190611d52565b5b50565b828054611cd890612388565b90600052602060002090601f016020900481019282611cfa5760008555611d41565b82601f10611d1357805160ff1916838001178555611d41565b82800160010185558215611d41579182015b82811115611d40578251825591602001919060010190611d25565b5b509050611d4e9190611d52565b5090565b5b80821115611d6b576000816000905550600101611d53565b5090565b6000604051905090565b600080fd5b600080fd5b600073ffffffffffffffffffffffffffffffffffffffff82169050919050565b6000611dae82611d83565b9050919050565b611dbe81611da3565b8114611dc957600080fd5b50565b600081359050611ddb81611db5565b92915050565b600060208284031215611df757611df6611d79565b5b6000611e0584828501611dcc565b91505092915050565b6000819050919050565b611e2181611e0e565b82525050565b611e3081611da3565b82525050565b6000606082019050611e4b6000830186611e18565b611e586020830185611e27565b611e656040830184611e27565b949350505050565b6000602082019050611e826000830184611e18565b92915050565b600080fd5b600080fd5b6000601f19601f8301169050919050565b7f4e487b7100000000000000000000000000000000000000000000000000000000600052604160045260246000fd5b611edb82611e92565b810181811067ffffffffffffffff82111715611efa57611ef9611ea3565b5b80604052505050565b6000611f0d611d6f565b9050611f198282611ed2565b919050565b600067ffffffffffffffff821115611f3957611f38611ea3565b5b611f4282611e92565b9050602081019050919050565b82818337600083830152505050565b6000611f71611f6c84611f1e565b611f03565b905082815260208101848484011115611f8d57611f8c611e8d565b5b611f98848285611f4f565b509392505050565b600082601f830112611fb557611fb4611e88565b5b8135611fc5848260208601611f5e565b91505092915050565b60008060408385031215611fe557611fe4611d79565b5b600083013567ffffffffffffffff81111561200357612002611d7e565b5b61200f85828601611fa0565b925050602083013567ffffffffffffffff8111156120305761202f611d7e565b5b61203c85828601611fa0565b9150509250929050565b6000819050919050565b61205981612046565b811461206457600080fd5b50565b60008135905061207681612050565b92915050565b60006020828403121561209257612091611d79565b5b60006120a084828501612067565b91505092915050565b600081519050919050565b600082825260208201905092915050565b60005b838110156120e35780820151818401526020810190506120c8565b838111156120f2576000848401525b50505050565b6000612103826120a9565b61210d81856120b4565b935061211d8185602086016120c5565b61212681611e92565b840191505092915050565b61213a81612046565b82525050565b600060c0820190506121556000830189611e27565b818103602083015261216781886120f8565b9050818103604083015261217b81876120f8565b905061218a6060830186612131565b6121976080830185612131565b6121a460a0830184611e18565b979650505050505050565b60008115159050919050565b6121c4816121af565b82525050565b60006020820190506121df60008301846121bb565b92915050565b6121ee81611e0e565b81146121f957600080fd5b50565b60008135905061220b816121e5565b92915050565b600080600080600060a0868803121561222d5761222c611d79565b5b600086013567ffffffffffffffff81111561224b5761224a611d7e565b5b61225788828901611fa0565b955050602086013567ffffffffffffffff81111561227857612277611d7e565b5b61228488828901611fa0565b945050604061229588828901612067565b93505060606122a688828901612067565b92505060806122b7888289016121fc565b9150509295509295909350565b6000819050919050565b6122df6122da82612046565b6122c4565b82525050565b60008160601b9050919050565b60006122fd826122e5565b9050919050565b600061230f826122f2565b9050919050565b61232761232282611da3565b612304565b82525050565b600061233982856122ce565b6020820191506123498284612316565b6014820191508190509392505050565b7f4e487b7100000000000000000000000000000000000000000000000000000000600052602260045260246000fd5b600060028204905060018216806123a057607f821691505b602082108114156123b4576123b3612359565b5b50919050565b7f4e487b7100000000000000000000000000000000000000000000000000000000600052601160045260246000fd5b60006123f482612046565b91506123ff83612046565b9250827fffffffffffffffffffffffffffffffffffffffffffffffffffffffffffffffff03821115612434576124336123ba565b5b828201905092915050565b600061244b8284612316565b60148201915081905092915050565b600061246682846122ce565b60208201915081905092915050565b6000819050919050565b61249061248b82611e0e565b612475565b82525050565b60006124a2828461247f565b60208201915081905092915050565b7f4e487b7100000000000000000000000000000000000000000000000000000000600052603260045260246000fd5b60006124eb82612046565b91507fffffffffffffffffffffffffffffffffffffffffffffffffffffffffffffffff82141561251e5761251d6123ba565b5b60018201905091905056fea2646970667358221220aaf64a6201a1d37a88b5eb0b8017c653235d19088523b9783be7a3869d4c9bd964736f6c634300080a0033",
  "immutableReferences": {},
  "source": "// SPDX-License-Identifier: MIT\r\npragma solidity >=0.4.22 <0.9.0;\r\n\r\ncontract certificate {\r\n    struct userinfo{\r\n        address addr; //20\r\n        string name; //bytes(u.name).length\r\n        string birth; //bytes(u.birth).length\r\n        uint notBefore; //32\r\n        uint notAfter; //32\r\n        bytes32 id; //32\r\n    }\r\n    struct cert {\r\n        bytes32 certhash;\r\n        address caPubkey;\r\n        address userPubkey;\r\n    }\r\n    \r\n    struct deleteInfo{\r\n        bytes32 certhash;\r\n    }\r\n    \r\n    bytes32 certhash;\r\n    address addr;\r\n    uint notBefore;\r\n    uint notAfter;\r\n    \r\n    constructor() public  {\r\n        addr = msg.sender;\r\n    }\r\n    \r\n    mapping(address => userinfo) public addressToInfo;\r\n    mapping(address => cert) public certificates;\r\n    deleteInfo[] public del;\r\n    \r\n    \r\n    function hasinfo() public returns(bool){\r\n        if(addressToInfo[addr].id == 0 ){\r\n            return false;\r\n        }\r\n        return true;\r\n    }\r\n    \r\n    function setTime() private {\r\n        notBefore = block.timestamp;\r\n        notAfter = notBefore + 365 days;\r\n    }\r\n    \r\n    function newUserInfo(string memory name, string memory birth) private {\r\n        addressToInfo[addr].addr = msg.sender;\r\n        addressToInfo[addr].name = name;\r\n        addressToInfo[addr].birth = birth;\r\n        addressToInfo[addr].notBefore = notBefore;\r\n        addressToInfo[addr].notAfter = notAfter;\r\n        addressToInfo[addr].id = setId();\r\n        \r\n        certhash = keccak256(userinfoToBytes(addressToInfo[addr]));\r\n        //certhash = keccak256(abi.encodePacked(addressToInfo[addr].name));\r\n    }\r\n    \r\n    function userinfoToBytes(userinfo memory u) private returns (bytes memory data){\r\n        uint _size = 116 + bytes(u.name).length + bytes(u.birth).length;\r\n        bytes memory _data = new bytes(_size);\r\n        \r\n        uint counter = 0;\r\n        bytes memory baddr = abi.encodePacked(u.addr);\r\n        bytes memory bBefore = abi.encodePacked(u.notBefore);\r\n        bytes memory bAfter = abi.encodePacked(u.notAfter);\r\n        bytes memory bId = abi.encodePacked(u.id);\r\n        for (uint i = 0; i < 20; i++){\r\n            _data[counter] = bytes(baddr)[i];\r\n            counter++;\r\n        }\r\n        for (uint i = 0; i < bytes(u.name).length; i++){\r\n            _data[counter] = bytes(u.name)[i];\r\n            counter++;\r\n        }\r\n        for (uint i = 0; i < bytes(u.birth).length; i++){\r\n            _data[counter] = bytes(u.birth)[i];\r\n            counter++;\r\n        }\r\n        for (uint i = 0; i < 32; i++){\r\n            _data[counter] = bytes(bBefore)[i];\r\n            counter++;\r\n        }\r\n        for (uint i = 0; i < 32; i++){\r\n            _data[counter] = bytes(bAfter)[i];\r\n            counter++;\r\n        }\r\n        for (uint i = 0; i < 32; i++){\r\n            _data[counter] = bytes(bId)[i];\r\n            counter++;\r\n        }\r\n        \r\n        return _data;\r\n    }\r\n    \r\n    function setId() public view returns(bytes32){\r\n        return keccak256(abi.encodePacked(block.timestamp, msg.sender));\r\n    }\r\n    \r\n    function newCert() private {\r\n        certificates[addr].caPubkey = 0x19dec5DE28cD9433d73A5FEA9C9D99E137064B57;\r\n        certificates[addr].userPubkey = addr;\r\n        certificates[addr].certhash = certhash;\r\n    }\r\n    \r\n    function getCertificate() public view returns(address, string memory, string memory, uint, uint, bytes32){\r\n        return(addressToInfo[addr].addr, addressToInfo[addr].name, addressToInfo[addr].birth, addressToInfo[addr].notBefore, addressToInfo[addr].notAfter, addressToInfo[addr].id);\r\n    }\r\n    \r\n    function getCertInfo() public view returns(bytes32, address, address){\r\n        return(certificates[addr].certhash, certificates[addr].caPubkey, certificates[addr].userPubkey);\r\n    }\r\n    \r\n    function issue(string memory name, string memory birth) public {\r\n        if(hasinfo() == false){\r\n            setTime();\r\n            newUserInfo(name, birth);\r\n            newCert();\r\n        }\r\n    }\r\n    \r\n    function verification2(string memory name, string memory birth, uint nbefore, uint nafter, bytes32 id) public returns(bool){\r\n        uint _size = 116 + bytes(name).length + bytes(birth).length;\r\n        bytes memory _data = new bytes(_size);\r\n        \r\n        uint counter = 0;\r\n        bytes memory baddr = abi.encodePacked(addr);\r\n        bytes memory bBefore = abi.encodePacked(nbefore);\r\n        bytes memory bafter = abi.encodePacked(nafter);\r\n        bytes memory bId = abi.encodePacked(id);\r\n        for (uint i = 0; i < 20; i++){\r\n            _data[counter] = bytes(baddr)[i];\r\n            counter++;\r\n        }\r\n        for (uint i = 0; i < bytes(name).length; i++){\r\n            _data[counter] = bytes(name)[i];\r\n            counter++;\r\n        }\r\n        for (uint i = 0; i < bytes(birth).length; i++){\r\n            _data[counter] = bytes(birth)[i];\r\n            counter++;\r\n        }\r\n        for (uint i = 0; i < 32; i++){\r\n            _data[counter] = bytes(bBefore)[i];\r\n            counter++;\r\n        }\r\n        for (uint i = 0; i < 32; i++){\r\n            _data[counter] = bytes(bafter)[i];\r\n            counter++;\r\n        }\r\n        for (uint i = 0; i < 32; i++){\r\n            _data[counter] = bytes(bId)[i];\r\n            counter++;\r\n        }\r\n        \r\n        bytes32 verifyHash = keccak256(_data);\r\n        \r\n        if(verifyHash == certificates[addr].certhash){\r\n            return true;\r\n        }\r\n        else{\r\n            return false;\r\n        }\r\n    }\r\n    \r\n    function deleteCert() public {\r\n        del.push(deleteInfo(certhash));\r\n        delete addressToInfo[addr];\r\n        delete certificates[addr];\r\n    }\r\n}",
  "sourcePath": "E:\\spec-a\\product_dApp\\contracts\\certificate.sol",
  "compiler": {
    "name": "solc",
    "version": "0.8.10+commit.fc410830.Emscripten.clang"
  },
  "schemaVersion": "3.4.3",
  "updatedAt": "2021-11-29T21:14:54.993Z",
  "networkType": "ethereum",
  "devdoc": {
    "kind": "dev",
    "methods": {},
    "version": 1
  },
  "userdoc": {
    "kind": "user",
    "methods": {},
    "version": 1
  }
}