{
  "contractName": "ProductContract",
  "abi": [
    {
      "anonymous": false,
      "inputs": [
        {
          "indexed": false,
          "internalType": "string",
          "name": "productName",
          "type": "string"
        },
        {
          "indexed": false,
          "internalType": "string",
          "name": "location",
          "type": "string"
        },
        {
          "indexed": false,
          "internalType": "uint256",
          "name": "count",
          "type": "uint256"
        },
        {
          "indexed": false,
          "internalType": "uint256",
          "name": "timestamp",
          "type": "uint256"
        }
      ],
      "name": "product",
      "type": "event"
    },
    {
      "inputs": [
        {
          "internalType": "uint256",
          "name": "",
          "type": "uint256"
        }
      ],
      "name": "products",
      "outputs": [
        {
          "internalType": "string",
          "name": "productName",
          "type": "string"
        },
        {
          "internalType": "string",
          "name": "locaton",
          "type": "string"
        },
        {
          "internalType": "uint256",
          "name": "count",
          "type": "uint256"
        },
        {
          "internalType": "uint256",
          "name": "timestamp",
          "type": "uint256"
        }
      ],
      "stateMutability": "view",
      "type": "function",
      "constant": true
    },
    {
      "inputs": [
        {
          "internalType": "string",
          "name": "_productName",
          "type": "string"
        },
        {
          "internalType": "string",
          "name": "_location",
          "type": "string"
        },
        {
          "internalType": "uint256",
          "name": "_count",
          "type": "uint256"
        }
      ],
      "name": "addProduct",
      "outputs": [],
      "stateMutability": "nonpayable",
      "type": "function"
    },
    {
      "inputs": [
        {
          "internalType": "uint256",
          "name": "_idx",
          "type": "uint256"
        }
      ],
      "name": "getProduct",
      "outputs": [
        {
          "internalType": "string",
          "name": "",
          "type": "string"
        },
        {
          "internalType": "string",
          "name": "",
          "type": "string"
        },
        {
          "internalType": "uint256",
          "name": "",
          "type": "uint256"
        },
        {
          "internalType": "uint256",
          "name": "",
          "type": "uint256"
        }
      ],
      "stateMutability": "view",
      "type": "function",
      "constant": true
    },
    {
      "inputs": [],
      "name": "getTotal",
      "outputs": [
        {
          "internalType": "uint256",
          "name": "",
          "type": "uint256"
        }
      ],
      "stateMutability": "view",
      "type": "function",
      "constant": true
    }
  ],
  "bytecode": "0x608060405234801561001057600080fd5b50610a30806100206000396000f3fe608060405234801561001057600080fd5b506004361061004c5760003560e01c8063775a25e3146100515780637acc0b201461006f578063b9db15b4146100a2578063f28ea1c1146100d5575b600080fd5b6100596100f1565b60405161006691906105be565b60405180910390f35b61008960048036038101906100849190610619565b6100fa565b60405161009994939291906106df565b60405180910390f35b6100bc60048036038101906100b79190610619565b61024a565b6040516100cc94939291906106df565b60405180910390f35b6100ef60048036038101906100ea9190610867565b61040d565b005b60008054905090565b6001818154811061010a57600080fd5b906000526020600020906004020160009150905080600001805461012d90610921565b80601f016020809104026020016040519081016040528092919081815260200182805461015990610921565b80156101a65780601f1061017b576101008083540402835291602001916101a6565b820191906000526020600020905b81548152906001019060200180831161018957829003601f168201915b5050505050908060010180546101bb90610921565b80601f01602080910402602001604051908101604052809291908181526020018280546101e790610921565b80156102345780601f1061020957610100808354040283529160200191610234565b820191906000526020600020905b81548152906001019060200180831161021757829003601f168201915b5050505050908060020154908060030154905084565b6060806000806001858154811061026457610263610953565b5b90600052602060002090600402016000016001868154811061028957610288610953565b5b9060005260206000209060040201600101600187815481106102ae576102ad610953565b5b906000526020600020906004020160020154600188815481106102d4576102d3610953565b5b9060005260206000209060040201600301548380546102f290610921565b80601f016020809104026020016040519081016040528092919081815260200182805461031e90610921565b801561036b5780601f106103405761010080835404028352916020019161036b565b820191906000526020600020905b81548152906001019060200180831161034e57829003601f168201915b5050505050935082805461037e90610921565b80601f01602080910402602001604051908101604052809291908181526020018280546103aa90610921565b80156103f75780601f106103cc576101008083540402835291602001916103f7565b820191906000526020600020905b8154815290600101906020018083116103da57829003601f168201915b5050505050925093509350935093509193509193565b600160405180608001604052808581526020018481526020018381526020014281525090806001815401808255809150506001900390600052602060002090600402016000909190919091506000820151816000019080519060200190610475929190610502565b506020820151816001019080519060200190610492929190610502565b50604082015181600201556060820151816003015550506000808154809291906104bb906109b1565b91905055507f53c13baf02c92da205c692b60bdd3d3bde6a9a3a961b02c5049587326a527f64838383426040516104f594939291906106df565b60405180910390a1505050565b82805461050e90610921565b90600052602060002090601f0160209004810192826105305760008555610577565b82601f1061054957805160ff1916838001178555610577565b82800160010185558215610577579182015b8281111561057657825182559160200191906001019061055b565b5b5090506105849190610588565b5090565b5b808211156105a1576000816000905550600101610589565b5090565b6000819050919050565b6105b8816105a5565b82525050565b60006020820190506105d360008301846105af565b92915050565b6000604051905090565b600080fd5b600080fd5b6105f6816105a5565b811461060157600080fd5b50565b600081359050610613816105ed565b92915050565b60006020828403121561062f5761062e6105e3565b5b600061063d84828501610604565b91505092915050565b600081519050919050565b600082825260208201905092915050565b60005b83811015610680578082015181840152602081019050610665565b8381111561068f576000848401525b50505050565b6000601f19601f8301169050919050565b60006106b182610646565b6106bb8185610651565b93506106cb818560208601610662565b6106d481610695565b840191505092915050565b600060808201905081810360008301526106f981876106a6565b9050818103602083015261070d81866106a6565b905061071c60408301856105af565b61072960608301846105af565b95945050505050565b600080fd5b600080fd5b7f4e487b7100000000000000000000000000000000000000000000000000000000600052604160045260246000fd5b61077482610695565b810181811067ffffffffffffffff821117156107935761079261073c565b5b80604052505050565b60006107a66105d9565b90506107b2828261076b565b919050565b600067ffffffffffffffff8211156107d2576107d161073c565b5b6107db82610695565b9050602081019050919050565b82818337600083830152505050565b600061080a610805846107b7565b61079c565b90508281526020810184848401111561082657610825610737565b5b6108318482856107e8565b509392505050565b600082601f83011261084e5761084d610732565b5b813561085e8482602086016107f7565b91505092915050565b6000806000606084860312156108805761087f6105e3565b5b600084013567ffffffffffffffff81111561089e5761089d6105e8565b5b6108aa86828701610839565b935050602084013567ffffffffffffffff8111156108cb576108ca6105e8565b5b6108d786828701610839565b92505060406108e886828701610604565b9150509250925092565b7f4e487b7100000000000000000000000000000000000000000000000000000000600052602260045260246000fd5b6000600282049050600182168061093957607f821691505b6020821081141561094d5761094c6108f2565b5b50919050565b7f4e487b7100000000000000000000000000000000000000000000000000000000600052603260045260246000fd5b7f4e487b7100000000000000000000000000000000000000000000000000000000600052601160045260246000fd5b60006109bc826105a5565b91507fffffffffffffffffffffffffffffffffffffffffffffffffffffffffffffffff8214156109ef576109ee610982565b5b60018201905091905056fea26469706673582212201b0186ddaa1ffd84d18c2984ee93bc6056157e906ebe8d433ae7be13fdaf749f64736f6c634300080a0033",
  "immutableReferences": {},
  "source": "// SPDX-License-Identifier: MIT\r\npragma solidity >=0.4.22 < 0.9.0;\r\n\r\ncontract ProductContract {\r\n    uint total;\r\n    struct myStruct {\r\n        string productName;\r\n        string locaton;\r\n        uint count;\r\n        uint timestamp;\r\n    }\r\n\r\n    event product (\r\n        string productName,\r\n        string location,\r\n        uint count,\r\n        uint timestamp\r\n    );\r\n\r\n    myStruct[] public products;\r\n\r\n    /*     */\r\n    function addProduct (string memory _productName, string memory _location, uint _count) public {\r\n        products.push(myStruct(_productName, _location, _count, block.timestamp));\r\n        total++;\r\n        emit product(_productName, _location, _count, block.timestamp);\r\n    }\r\n\r\n    /*      */\r\n    function getProduct(uint _idx) public view returns (string memory, string memory, uint, uint) {\r\n        return (products[_idx].productName, products[_idx].locaton, products[_idx].count, products[_idx].timestamp);\r\n    }\r\n\r\n    function getTotal() public view returns (uint) {\r\n        return total;\r\n    }\r\n}",
  "sourcePath": "E:\\spec-a\\product_dApp\\contracts\\smartContract.sol",
  "compiler": {
    "name": "solc",
    "version": "0.8.10+commit.fc410830.Emscripten.clang"
  },
  "schemaVersion": "3.4.3",
  "updatedAt": "2021-11-29T21:14:51.776Z",
  "networkType": "ethereum",
  "devdoc": {
    "kind": "dev",
    "methods": {},
    "version": 1
  },
  "userdoc": {
    "kind": "user",
    "methods": {},
    "version": 1
  }
}